{
  "contractName": "Prizable",
  "abi": [
    {
      "inputs": [
        {
          "internalType": "address",
          "name": "",
          "type": "address"
        }
      ],
      "name": "prizes",
      "outputs": [
        {
          "internalType": "uint256",
          "name": "",
          "type": "uint256"
        }
      ],
      "stateMutability": "view",
      "type": "function"
    },
    {
      "inputs": [],
      "name": "getPrize",
      "outputs": [
        {
          "internalType": "uint256",
          "name": "",
          "type": "uint256"
        }
      ],
      "stateMutability": "view",
      "type": "function"
    },
    {
      "inputs": [
        {
          "internalType": "uint256",
          "name": "withdrawAmount",
          "type": "uint256"
        }
      ],
      "name": "withdrawPrize",
      "outputs": [
        {
          "internalType": "uint256",
          "name": "",
          "type": "uint256"
        }
      ],
      "stateMutability": "nonpayable",
      "type": "function"
    }
  ],
  "bytecode": "0x608060405234801561001057600080fd5b50600160008190555061038e806100286000396000f3fe608060405234801561001057600080fd5b50600436106100415760003560e01c8063b35d11bf14610046578063c20eec7b14610076578063c34f6b0d146100a6575b600080fd5b610060600480360381019061005b919061020f565b6100c4565b60405161006d9190610270565b60405180910390f35b610090600480360381019061008b9190610238565b6100dc565b60405161009d9190610270565b60405180910390f35b6100ae61019e565b6040516100bb9190610270565b60405180910390f35b60016020528060005260406000206000915090505481565b6000816100e761019e565b10156100f257600080fd5b81600160003373ffffffffffffffffffffffffffffffffffffffff1673ffffffffffffffffffffffffffffffffffffffff1681526020019081526020016000206000828254610141919061028b565b925050819055503373ffffffffffffffffffffffffffffffffffffffff166108fc839081150290604051600060405180830381858888f1935050505015801561018e573d6000803e3d6000fd5b5061019761019e565b9050919050565b6000600160003373ffffffffffffffffffffffffffffffffffffffff1673ffffffffffffffffffffffffffffffffffffffff16815260200190815260200160002054905090565b6000813590506101f48161032a565b92915050565b60008135905061020981610341565b92915050565b60006020828403121561022157600080fd5b600061022f848285016101e5565b91505092915050565b60006020828403121561024a57600080fd5b6000610258848285016101fa565b91505092915050565b61026a816102f1565b82525050565b60006020820190506102856000830184610261565b92915050565b6000610296826102f1565b91506102a1836102f1565b9250828210156102b4576102b36102fb565b5b828203905092915050565b60006102ca826102d1565b9050919050565b600073ffffffffffffffffffffffffffffffffffffffff82169050919050565b6000819050919050565b7f4e487b7100000000000000000000000000000000000000000000000000000000600052601160045260246000fd5b610333816102bf565b811461033e57600080fd5b50565b61034a816102f1565b811461035557600080fd5b5056fea2646970667358221220f258aceb6c5652438d8578fa39aee336021b59964e744c1d12ac7aab09ee762364736f6c63430008000033",
  "immutableReferences": {},
  "source": "// SPDX-License-Identifier: MIT\npragma solidity >=0.8.0 <0.9.0;\n\nimport \"@openzeppelin/contracts/security/ReentrancyGuard.sol\";\n\n/// @title Users prize bank\ncontract Prizable is ReentrancyGuard {\n    // Prizes\n    mapping (address => uint) public prizes;\n\n    function addPrize(address _address, uint _amount) nonReentrant internal {\n        uint balance = prizes[_address];\n        balance += _amount;\n        prizes[_address] = balance;\n    }\n\n    function getPrize() public view returns (uint) {\n        return prizes[msg.sender];\n    }\n    \n\n    function withdrawPrize(uint withdrawAmount) public returns (uint) {\n      // If the sender's balance is at least the amount they want to withdraw,\n      // Subtract the amount from the sender's balance, and try to send that amount of ether\n      // to the user attempting to withdraw. \n      // return the user's balance.\n\n      // 1. Use a require expression to guard/ensure sender has enough funds\n      require(getPrize() >= withdrawAmount);\n  \n      // 2. Transfer Eth to the sender and decrement the withdrawal amount from\n      //    sender's balance\n      prizes[msg.sender] -= withdrawAmount;\n      payable(msg.sender).transfer(withdrawAmount);\n\n      // 3. Emit the appropriate event for this message\n    //   emit LogWithdrawal(msg.sender, withdrawAmount, getBalance());\n\n      return getPrize();\n    }\n\n}",
  "sourcePath": "C:\\todo-list-dapp-main\\blockchain\\contracts\\Prizable.sol",
  "compiler": {
    "name": "solc",
    "version": "0.8.0+commit.c7dfd78e.Emscripten.clang"
  },
  "schemaVersion": "3.4.8",
  "updatedAt": "2022-07-16T06:41:28.671Z",
  "devdoc": {
    "kind": "dev",
    "methods": {},
    "title": "Users prize bank",
    "version": 1
  },
  "userdoc": {
    "kind": "user",
    "methods": {},
    "version": 1
  }
}